{
  "contractName": "P2PChitFund",
  "abi": [
    {
      "inputs": [],
      "stateMutability": "nonpayable",
      "type": "constructor"
    },
    {
      "anonymous": false,
      "inputs": [
        {
          "indexed": true,
          "internalType": "address",
          "name": "member",
          "type": "address"
        },
        {
          "indexed": false,
          "internalType": "uint256",
          "name": "amount",
          "type": "uint256"
        }
      ],
      "name": "Deposited",
      "type": "event"
    },
    {
      "anonymous": false,
      "inputs": [
        {
          "indexed": true,
          "internalType": "address",
          "name": "borrower",
          "type": "address"
        },
        {
          "indexed": false,
          "internalType": "uint256",
          "name": "amount",
          "type": "uint256"
        },
        {
          "indexed": false,
          "internalType": "uint16",
          "name": "remainingInstallments",
          "type": "uint16"
        }
      ],
      "name": "InstallmentPaid",
      "type": "event"
    },
    {
      "anonymous": false,
      "inputs": [
        {
          "indexed": true,
          "internalType": "address",
          "name": "borrower",
          "type": "address"
        },
        {
          "indexed": false,
          "internalType": "uint256",
          "name": "amount",
          "type": "uint256"
        },
        {
          "indexed": false,
          "internalType": "uint256",
          "name": "reputation",
          "type": "uint256"
        },
        {
          "indexed": false,
          "internalType": "bool",
          "name": "isInstallmentPlan",
          "type": "bool"
        }
      ],
      "name": "LoanGranted",
      "type": "event"
    },
    {
      "anonymous": false,
      "inputs": [
        {
          "indexed": true,
          "internalType": "address",
          "name": "borrower",
          "type": "address"
        },
        {
          "indexed": false,
          "internalType": "uint256",
          "name": "amount",
          "type": "uint256"
        }
      ],
      "name": "LoanRepaidInFull",
      "type": "event"
    },
    {
      "anonymous": false,
      "inputs": [
        {
          "indexed": true,
          "internalType": "address",
          "name": "borrower",
          "type": "address"
        },
        {
          "indexed": false,
          "internalType": "uint256",
          "name": "penaltyAmount",
          "type": "uint256"
        }
      ],
      "name": "PenaltyApplied",
      "type": "event"
    },
    {
      "inputs": [],
      "name": "currMemberCount",
      "outputs": [
        {
          "internalType": "uint8",
          "name": "",
          "type": "uint8"
        }
      ],
      "stateMutability": "view",
      "type": "function",
      "constant": true
    },
    {
      "inputs": [],
      "name": "defaultPenaltyPercentage",
      "outputs": [
        {
          "internalType": "uint256",
          "name": "",
          "type": "uint256"
        }
      ],
      "stateMutability": "view",
      "type": "function",
      "constant": true
    },
    {
      "inputs": [],
      "name": "extendedDefaultThreshold",
      "outputs": [
        {
          "internalType": "uint256",
          "name": "",
          "type": "uint256"
        }
      ],
      "stateMutability": "view",
      "type": "function",
      "constant": true
    },
    {
      "inputs": [],
      "name": "individualDepositAmount",
      "outputs": [
        {
          "internalType": "uint256",
          "name": "",
          "type": "uint256"
        }
      ],
      "stateMutability": "view",
      "type": "function",
      "constant": true
    },
    {
      "inputs": [],
      "name": "installmentInterval",
      "outputs": [
        {
          "internalType": "uint256",
          "name": "",
          "type": "uint256"
        }
      ],
      "stateMutability": "view",
      "type": "function",
      "constant": true
    },
    {
      "inputs": [
        {
          "internalType": "address",
          "name": "",
          "type": "address"
        }
      ],
      "name": "loans",
      "outputs": [
        {
          "internalType": "uint256",
          "name": "totalAmount",
          "type": "uint256"
        },
        {
          "internalType": "uint256",
          "name": "installmentAmount",
          "type": "uint256"
        },
        {
          "internalType": "uint16",
          "name": "installmentsPaid",
          "type": "uint16"
        },
        {
          "internalType": "uint16",
          "name": "totalInstallments",
          "type": "uint16"
        },
        {
          "internalType": "uint256",
          "name": "nextDueDate",
          "type": "uint256"
        },
        {
          "internalType": "bool",
          "name": "isActive",
          "type": "bool"
        },
        {
          "internalType": "uint256",
          "name": "lastPaymentDate",
          "type": "uint256"
        },
        {
          "internalType": "uint256",
          "name": "defaultCount",
          "type": "uint256"
        }
      ],
      "stateMutability": "view",
      "type": "function",
      "constant": true
    },
    {
      "inputs": [
        {
          "internalType": "address",
          "name": "",
          "type": "address"
        }
      ],
      "name": "members",
      "outputs": [
        {
          "internalType": "bool",
          "name": "isMember",
          "type": "bool"
        },
        {
          "internalType": "uint256",
          "name": "loanGranted",
          "type": "uint256"
        },
        {
          "internalType": "uint256",
          "name": "lastDepositedTime",
          "type": "uint256"
        },
        {
          "internalType": "uint256",
          "name": "totalDeposits",
          "type": "uint256"
        },
        {
          "internalType": "uint256",
          "name": "reputationScore",
          "type": "uint256"
        },
        {
          "internalType": "uint256",
          "name": "joinTime",
          "type": "uint256"
        }
      ],
      "stateMutability": "view",
      "type": "function",
      "constant": true
    },
    {
      "inputs": [],
      "name": "owner",
      "outputs": [
        {
          "internalType": "address payable",
          "name": "",
          "type": "address"
        }
      ],
      "stateMutability": "view",
      "type": "function",
      "constant": true
    },
    {
      "inputs": [],
      "name": "surplus",
      "outputs": [
        {
          "internalType": "uint256",
          "name": "",
          "type": "uint256"
        }
      ],
      "stateMutability": "view",
      "type": "function",
      "constant": true
    },
    {
      "inputs": [],
      "name": "totalMembers",
      "outputs": [
        {
          "internalType": "uint8",
          "name": "",
          "type": "uint8"
        }
      ],
      "stateMutability": "view",
      "type": "function",
      "constant": true
    },
    {
      "inputs": [],
      "name": "joinFund",
      "outputs": [],
      "stateMutability": "nonpayable",
      "type": "function"
    },
    {
      "inputs": [],
      "name": "deposit",
      "outputs": [],
      "stateMutability": "payable",
      "type": "function",
      "payable": true
    },
    {
      "inputs": [
        {
          "internalType": "uint256",
          "name": "amount",
          "type": "uint256"
        },
        {
          "internalType": "uint16",
          "name": "totalInstallments",
          "type": "uint16"
        }
      ],
      "name": "requestLoan",
      "outputs": [],
      "stateMutability": "nonpayable",
      "type": "function"
    },
    {
      "inputs": [],
      "name": "payInstallment",
      "outputs": [],
      "stateMutability": "payable",
      "type": "function",
      "payable": true
    },
    {
      "inputs": [],
      "name": "checkMissedInstallments",
      "outputs": [],
      "stateMutability": "nonpayable",
      "type": "function"
    },
    {
      "inputs": [
        {
          "internalType": "address",
          "name": "borrower",
          "type": "address"
        }
      ],
      "name": "getLoanDetails",
      "outputs": [
        {
          "components": [
            {
              "internalType": "uint256",
              "name": "totalAmount",
              "type": "uint256"
            },
            {
              "internalType": "uint256",
              "name": "installmentAmount",
              "type": "uint256"
            },
            {
              "internalType": "uint16",
              "name": "installmentsPaid",
              "type": "uint16"
            },
            {
              "internalType": "uint16",
              "name": "totalInstallments",
              "type": "uint16"
            },
            {
              "internalType": "uint256",
              "name": "nextDueDate",
              "type": "uint256"
            },
            {
              "internalType": "bool",
              "name": "isActive",
              "type": "bool"
            },
            {
              "internalType": "uint256",
              "name": "lastPaymentDate",
              "type": "uint256"
            },
            {
              "internalType": "uint256",
              "name": "defaultCount",
              "type": "uint256"
            }
          ],
          "internalType": "struct P2PChitFund.Loan",
          "name": "",
          "type": "tuple"
        }
      ],
      "stateMutability": "view",
      "type": "function",
      "constant": true
    },
    {
      "inputs": [],
      "name": "withdrawSurplus",
      "outputs": [],
      "stateMutability": "nonpayable",
      "type": "function"
    }
  ],
  "bytecode": "0x608060405260025f60146101000a81548160ff021916908360ff1602179055505f5f60156101000a81548160ff021916908360ff160217905550662386f26fc10000600155660aa87bee53800060025562278d00600355600a600455624f1a00600555348015606c575f5ffd5b50335f5f6101000a81548173ffffffffffffffffffffffffffffffffffffffff021916908373ffffffffffffffffffffffffffffffffffffffff1602179055506121c7806100b95f395ff3fe6080604052600436106100fd575f3560e01c806387eb3f5311610094578063d67fe19811610063578063d67fe198146102cb578063de851b0a146102f5578063e8a7da8e1461031f578063e9e1965d1461035b578063eee4d40014610365576100fd565b806387eb3f531461026b5780638a24c175146102815780638da5cb5b14610297578063d0e30db0146102c1576100fd565b806350f39e12116100d057806350f39e12146101aa5780636c7bbd10146101d457806373b4086b146101fe57806376e9255914610241576100fd565b80630675b0bc1461010157806308ae4b0c14610129578063138885651461016a5780634be957da14610194575b5f5ffd5b34801561010c575f5ffd5b50610127600480360381019061012291906116cd565b61038f565b005b348015610134575f5ffd5b5061014f600480360381019061014a9190611765565b610843565b604051610161969594939291906117b9565b60405180910390f35b348015610175575f5ffd5b5061017e610887565b60405161018b9190611818565b60405180910390f35b34801561019f575f5ffd5b506101a861088d565b005b3480156101b5575f5ffd5b506101be610a76565b6040516101cb9190611818565b60405180910390f35b3480156101df575f5ffd5b506101e8610a7c565b6040516101f59190611818565b60405180910390f35b348015610209575f5ffd5b50610224600480360381019061021f9190611765565b610a82565b604051610238989796959493929190611840565b60405180910390f35b34801561024c575f5ffd5b50610255610aed565b60405161026291906118d7565b60405180910390f35b348015610276575f5ffd5b5061027f610aff565b005b34801561028c575f5ffd5b50610295610da3565b005b3480156102a2575f5ffd5b506102ab610fa0565b6040516102b89190611910565b60405180910390f35b6102c9610fc4565b005b3480156102d6575f5ffd5b506102df61119d565b6040516102ec91906118d7565b60405180910390f35b348015610300575f5ffd5b506103096111af565b6040516103169190611818565b60405180910390f35b34801561032a575f5ffd5b5061034560048036038101906103409190611765565b6111b5565b60405161035291906119f6565b60405180910390f35b610363611297565b005b348015610370575f5ffd5b50610379611612565b6040516103869190611818565b60405180910390f35b60065f3373ffffffffffffffffffffffffffffffffffffffff1673ffffffffffffffffffffffffffffffffffffffff1681526020019081526020015f205f015f9054906101000a900460ff1661041a576040517f08c379a000000000000000000000000000000000000000000000000000000000815260040161041190611a90565b60405180910390fd5b5f821161045c576040517f08c379a000000000000000000000000000000000000000000000000000000000815260040161045390611b1e565b60405180910390fd5b4782111561049f576040517f08c379a000000000000000000000000000000000000000000000000000000000815260040161049690611b86565b60405180910390fd5b5f478311905080156105ea575f8261ffff16846104bc9190611bfe565b90506040518061010001604052808581526020018281526020015f61ffff1681526020018461ffff168152602001600354426104f89190611c2e565b81526020016001151581526020014281526020015f81525060075f3373ffffffffffffffffffffffffffffffffffffffff1673ffffffffffffffffffffffffffffffffffffffff1681526020019081526020015f205f820151815f0155602082015181600101556040820151816002015f6101000a81548161ffff021916908361ffff16021790555060608201518160020160026101000a81548161ffff021916908361ffff1602179055506080820151816003015560a0820151816004015f6101000a81548160ff02191690831515021790555060c0820151816005015560e0820151816006015590505050610712565b6040518061010001604052808481526020018481526020015f61ffff168152602001600161ffff168152602001600354426106259190611c2e565b81526020016001151581526020014281526020015f81525060075f3373ffffffffffffffffffffffffffffffffffffffff1673ffffffffffffffffffffffffffffffffffffffff1681526020019081526020015f205f820151815f0155602082015181600101556040820151816002015f6101000a81548161ffff021916908361ffff16021790555060608201518160020160026101000a81548161ffff021916908361ffff1602179055506080820151816003015560a0820151816004015f6101000a81548160ff02191690831515021790555060c0820151816005015560e082015181600601559050505b8260065f3373ffffffffffffffffffffffffffffffffffffffff1673ffffffffffffffffffffffffffffffffffffffff1681526020019081526020015f206001015f8282546107619190611c2e565b925050819055503373ffffffffffffffffffffffffffffffffffffffff166108fc8490811502906040515f60405180830381858888f193505050501580156107ab573d5f5f3e3d5ffd5b503373ffffffffffffffffffffffffffffffffffffffff167f1ca64e76fc825c838ae89b3364f13d434079b0c06f500d0ebcf5bcd7e052a9758460065f3373ffffffffffffffffffffffffffffffffffffffff1673ffffffffffffffffffffffffffffffffffffffff1681526020019081526020015f20600401548460405161083693929190611c61565b60405180910390a2505050565b6006602052805f5260405f205f91509050805f015f9054906101000a900460ff16908060010154908060020154908060030154908060040154908060050154905086565b60025481565b5f60149054906101000a900460ff1660ff165f60159054906101000a900460ff1660ff16106108f1576040517f08c379a00000000000000000000000000000000000000000000000000000000081526004016108e890611ce0565b60405180910390fd5b60065f3373ffffffffffffffffffffffffffffffffffffffff1673ffffffffffffffffffffffffffffffffffffffff1681526020019081526020015f205f015f9054906101000a900460ff161561097d576040517f08c379a000000000000000000000000000000000000000000000000000000000815260040161097490611d48565b60405180910390fd5b6040518060c001604052806001151581526020015f81526020014281526020015f8152602001600181526020014281525060065f3373ffffffffffffffffffffffffffffffffffffffff1673ffffffffffffffffffffffffffffffffffffffff1681526020019081526020015f205f820151815f015f6101000a81548160ff0219169083151502179055506020820151816001015560408201518160020155606082015181600301556080820151816004015560a082015181600501559050505f601581819054906101000a900460ff1680929190610a5b90611d66565b91906101000a81548160ff021916908360ff16021790555050565b60045481565b60015481565b6007602052805f5260405f205f91509050805f015490806001015490806002015f9054906101000a900461ffff16908060020160029054906101000a900461ffff1690806003015490806004015f9054906101000a900460ff16908060050154908060060154905088565b5f60149054906101000a900460ff1681565b60065f3373ffffffffffffffffffffffffffffffffffffffff1673ffffffffffffffffffffffffffffffffffffffff1681526020019081526020015f205f015f9054906101000a900460ff16610b8a576040517f08c379a0000000000000000000000000000000000000000000000000000000008152600401610b8190611a90565b60405180910390fd5b5f60075f3373ffffffffffffffffffffffffffffffffffffffff1673ffffffffffffffffffffffffffffffffffffffff1681526020019081526020015f209050806004015f9054906101000a900460ff1615610da0578060030154421115610d9f576001816006015f828254610c009190611c2e565b925050819055505f816006015490506001811115610d81575f6064600454845f0154610c2c9190611d8e565b610c369190611bfe565b905080835f015f828254610c4a9190611c2e565b92505081905550600160065f3373ffffffffffffffffffffffffffffffffffffffff1673ffffffffffffffffffffffffffffffffffffffff1681526020019081526020015f206004015411610c9f575f610ced565b600160065f3373ffffffffffffffffffffffffffffffffffffffff1673ffffffffffffffffffffffffffffffffffffffff1681526020019081526020015f2060040154610cec9190611dcf565b5b60065f3373ffffffffffffffffffffffffffffffffffffffff1673ffffffffffffffffffffffffffffffffffffffff1681526020019081526020015f20600401819055503373ffffffffffffffffffffffffffffffffffffffff167f4b28c7dc138644f27518388387393ecbd08ef8d180a4a6799c954be166a37ab382604051610d779190611818565b60405180910390a2505b600354826003015f828254610d969190611c2e565b92505081905550505b5b50565b60065f3373ffffffffffffffffffffffffffffffffffffffff1673ffffffffffffffffffffffffffffffffffffffff1681526020019081526020015f205f015f9054906101000a900460ff16610e2e576040517f08c379a0000000000000000000000000000000000000000000000000000000008152600401610e2590611a90565b60405180910390fd5b60075f3373ffffffffffffffffffffffffffffffffffffffff1673ffffffffffffffffffffffffffffffffffffffff1681526020019081526020015f2060020160029054906101000a900461ffff1661ffff1660075f3373ffffffffffffffffffffffffffffffffffffffff1673ffffffffffffffffffffffffffffffffffffffff1681526020019081526020015f206002015f9054906101000a900461ffff1661ffff1614610f13576040517f08c379a0000000000000000000000000000000000000000000000000000000008152600401610f0a90611e4c565b60405180910390fd5b600254471015610f58576040517f08c379a0000000000000000000000000000000000000000000000000000000008152600401610f4f90611eda565b60405180910390fd5b3373ffffffffffffffffffffffffffffffffffffffff166108fc60025490811502906040515f60405180830381858888f19350505050158015610f9d573d5f5f3e3d5ffd5b50565b5f5f9054906101000a900473ffffffffffffffffffffffffffffffffffffffff1681565b60065f3373ffffffffffffffffffffffffffffffffffffffff1673ffffffffffffffffffffffffffffffffffffffff1681526020019081526020015f205f015f9054906101000a900460ff1661104f576040517f08c379a000000000000000000000000000000000000000000000000000000000815260040161104690611a90565b60405180910390fd5b5f60149054906101000a900460ff1660ff165f60159054906101000a900460ff1660ff16146110b3576040517f08c379a00000000000000000000000000000000000000000000000000000000081526004016110aa90611f42565b60405180910390fd5b60015434146110f7576040517f08c379a00000000000000000000000000000000000000000000000000000000081526004016110ee90611faa565b60405180910390fd5b3460065f3373ffffffffffffffffffffffffffffffffffffffff1673ffffffffffffffffffffffffffffffffffffffff1681526020019081526020015f206003015f8282546111469190611c2e565b925050819055503373ffffffffffffffffffffffffffffffffffffffff167f2da466a7b24304f47e87fa2e1e5a81b9831ce54fec19055ce277ca2f39ba42c4346040516111939190611818565b60405180910390a2565b5f60159054906101000a900460ff1681565b60035481565b6111bd611618565b60075f8373ffffffffffffffffffffffffffffffffffffffff1673ffffffffffffffffffffffffffffffffffffffff1681526020019081526020015f20604051806101000160405290815f820154815260200160018201548152602001600282015f9054906101000a900461ffff1661ffff1661ffff1681526020016002820160029054906101000a900461ffff1661ffff1661ffff16815260200160038201548152602001600482015f9054906101000a900460ff16151515158152602001600582015481526020016006820154815250509050919050565b60065f3373ffffffffffffffffffffffffffffffffffffffff1673ffffffffffffffffffffffffffffffffffffffff1681526020019081526020015f205f015f9054906101000a900460ff16611322576040517f08c379a000000000000000000000000000000000000000000000000000000000815260040161131990611a90565b60405180910390fd5b5f60075f3373ffffffffffffffffffffffffffffffffffffffff1673ffffffffffffffffffffffffffffffffffffffff1681526020019081526020015f209050806004015f9054906101000a900460ff166113b2576040517f08c379a00000000000000000000000000000000000000000000000000000000081526004016113a990612012565b60405180910390fd5b80600301544211156113f9576040517f08c379a00000000000000000000000000000000000000000000000000000000081526004016113f09061207a565b60405180910390fd5b8060010154341461143f576040517f08c379a0000000000000000000000000000000000000000000000000000000008152600401611436906120e2565b60405180910390fd5b4281600501819055505f81600601819055506001816002015f8282829054906101000a900461ffff166114729190612100565b92506101000a81548161ffff021916908361ffff160217905550600354816003015f8282546114a19190611c2e565b925050819055508060020160029054906101000a900461ffff1661ffff16816002015f9054906101000a900461ffff1661ffff1603611590575f816004015f6101000a81548160ff0219169083151502179055505f60065f3373ffffffffffffffffffffffffffffffffffffffff1673ffffffffffffffffffffffffffffffffffffffff1681526020019081526020015f20600101819055503373ffffffffffffffffffffffffffffffffffffffff167f3f6d3e52b59035b39d4a2c00cc687d9e90918df867860a0ef52aa506b33ee780825f01546040516115839190611818565b60405180910390a261160f565b3373ffffffffffffffffffffffffffffffffffffffff167f1fab14b94316663c88d967bdfed07c6f6b76086ed879b1cbeb6632d14a3a787134836002015f9054906101000a900461ffff168460020160029054906101000a900461ffff166115f89190612135565b60405161160692919061216a565b60405180910390a25b50565b60055481565b6040518061010001604052805f81526020015f81526020015f61ffff1681526020015f61ffff1681526020015f81526020015f151581526020015f81526020015f81525090565b5f5ffd5b5f819050919050565b61167581611663565b811461167f575f5ffd5b50565b5f813590506116908161166c565b92915050565b5f61ffff82169050919050565b6116ac81611696565b81146116b6575f5ffd5b50565b5f813590506116c7816116a3565b92915050565b5f5f604083850312156116e3576116e261165f565b5b5f6116f085828601611682565b9250506020611701858286016116b9565b9150509250929050565b5f73ffffffffffffffffffffffffffffffffffffffff82169050919050565b5f6117348261170b565b9050919050565b6117448161172a565b811461174e575f5ffd5b50565b5f8135905061175f8161173b565b92915050565b5f6020828403121561177a5761177961165f565b5b5f61178784828501611751565b91505092915050565b5f8115159050919050565b6117a481611790565b82525050565b6117b381611663565b82525050565b5f60c0820190506117cc5f83018961179b565b6117d960208301886117aa565b6117e660408301876117aa565b6117f360608301866117aa565b61180060808301856117aa565b61180d60a08301846117aa565b979650505050505050565b5f60208201905061182b5f8301846117aa565b92915050565b61183a81611696565b82525050565b5f610100820190506118545f83018b6117aa565b611861602083018a6117aa565b61186e6040830189611831565b61187b6060830188611831565b61188860808301876117aa565b61189560a083018661179b565b6118a260c08301856117aa565b6118af60e08301846117aa565b9998505050505050505050565b5f60ff82169050919050565b6118d1816118bc565b82525050565b5f6020820190506118ea5f8301846118c8565b92915050565b5f6118fa8261170b565b9050919050565b61190a816118f0565b82525050565b5f6020820190506119235f830184611901565b92915050565b61193281611663565b82525050565b61194181611696565b82525050565b61195081611790565b82525050565b61010082015f82015161196b5f850182611929565b50602082015161197e6020850182611929565b5060408201516119916040850182611938565b5060608201516119a46060850182611938565b5060808201516119b76080850182611929565b5060a08201516119ca60a0850182611947565b5060c08201516119dd60c0850182611929565b5060e08201516119f060e0850182611929565b50505050565b5f61010082019050611a0a5f830184611956565b92915050565b5f82825260208201905092915050565b7f4f6e6c79206d656d626572732063616e20706572666f726d20746869732061635f8201527f74696f6e2e000000000000000000000000000000000000000000000000000000602082015250565b5f611a7a602583611a10565b9150611a8582611a20565b604082019050919050565b5f6020820190508181035f830152611aa781611a6e565b9050919050565b7f4c6f616e20616d6f756e74206d7573742062652067726561746572207468616e5f8201527f207a65726f2e0000000000000000000000000000000000000000000000000000602082015250565b5f611b08602683611a10565b9150611b1382611aae565b604082019050919050565b5f6020820190508181035f830152611b3581611afc565b9050919050565b7f496e73756666696369656e742066756e647320696e20636f6e74726163742e005f82015250565b5f611b70601f83611a10565b9150611b7b82611b3c565b602082019050919050565b5f6020820190508181035f830152611b9d81611b64565b9050919050565b7f4e487b71000000000000000000000000000000000000000000000000000000005f52601260045260245ffd5b7f4e487b71000000000000000000000000000000000000000000000000000000005f52601160045260245ffd5b5f611c0882611663565b9150611c1383611663565b925082611c2357611c22611ba4565b5b828204905092915050565b5f611c3882611663565b9150611c4383611663565b9250828201905080821115611c5b57611c5a611bd1565b5b92915050565b5f606082019050611c745f8301866117aa565b611c8160208301856117aa565b611c8e604083018461179b565b949350505050565b7f4d6178696d756d206d656d6265727320726561636865642e00000000000000005f82015250565b5f611cca601883611a10565b9150611cd582611c96565b602082019050919050565b5f6020820190508181035f830152611cf781611cbe565b9050919050565b7f416c72656164792061206d656d6265722e0000000000000000000000000000005f82015250565b5f611d32601183611a10565b9150611d3d82611cfe565b602082019050919050565b5f6020820190508181035f830152611d5f81611d26565b9050919050565b5f611d70826118bc565b915060ff8203611d8357611d82611bd1565b5b600182019050919050565b5f611d9882611663565b9150611da383611663565b9250828202611db181611663565b91508282048414831517611dc857611dc7611bd1565b5b5092915050565b5f611dd982611663565b9150611de483611663565b9250828203905081811115611dfc57611dfb611bd1565b5b92915050565b7f4c6f616e206e6f742066756c6c792072657061696400000000000000000000005f82015250565b5f611e36601583611a10565b9150611e4182611e02565b602082019050919050565b5f6020820190508181035f830152611e6381611e2a565b9050919050565b7f496e73756666696369656e742062616c616e636520666f7220737572706c75735f8201527f207769746864726177616c000000000000000000000000000000000000000000602082015250565b5f611ec4602b83611a10565b9150611ecf82611e6a565b604082019050919050565b5f6020820190508181035f830152611ef181611eb8565b9050919050565b7f416c6c206d656d62657273206d757374206a6f696e2066697273742e000000005f82015250565b5f611f2c601c83611a10565b9150611f3782611ef8565b602082019050919050565b5f6020820190508181035f830152611f5981611f20565b9050919050565b7f496e636f7272656374206465706f73697420616d6f756e742e000000000000005f82015250565b5f611f94601983611a10565b9150611f9f82611f60565b602082019050919050565b5f6020820190508181035f830152611fc181611f88565b9050919050565b7f4e6f20616374697665206c6f616e20666f756e642e00000000000000000000005f82015250565b5f611ffc601583611a10565b915061200782611fc8565b602082019050919050565b5f6020820190508181035f83015261202981611ff0565b9050919050565b7f496e7374616c6c6d656e74206f7665726475652e0000000000000000000000005f82015250565b5f612064601483611a10565b915061206f82612030565b602082019050919050565b5f6020820190508181035f83015261209181612058565b9050919050565b7f496e636f727265637420696e7374616c6c6d656e7420616d6f756e742e0000005f82015250565b5f6120cc601d83611a10565b91506120d782612098565b602082019050919050565b5f6020820190508181035f8301526120f9816120c0565b9050919050565b5f61210a82611696565b915061211583611696565b9250828201905061ffff81111561212f5761212e611bd1565b5b92915050565b5f61213f82611696565b915061214a83611696565b9250828203905061ffff81111561216457612163611bd1565b5b92915050565b5f60408201905061217d5f8301856117aa565b61218a6020830184611831565b939250505056fea26469706673582212206920d86c1f52b8c68a5f5ee6114d3dde041e1f63e6ecbde1aa4bed811d80694b64736f6c634300081c0033",
  "immutableReferences": {},
  "source": "// SPDX-License-Identifier: MIT\npragma solidity ^0.8.28;\n\ncontract P2PChitFund {\n  address payable public owner;\n  uint8 public totalMembers = 2;\n  uint8 public currMemberCount = 0;\n  uint256 public individualDepositAmount = 0.01 ether;\n  uint256 public surplus = 0.003 ether;\n  uint256 public installmentInterval = 30 days;\n  uint256 public defaultPenaltyPercentage = 10; // Penalty percentage for defaults\n  uint256 public extendedDefaultThreshold = 2 * 30 days; // 2 missed installments threshold for penalty\n\n  struct Person {\n    bool isMember;\n    uint256 loanGranted;\n    uint256 lastDepositedTime;\n    uint256 totalDeposits;\n    uint256 reputationScore;\n    uint256 joinTime;\n  }\n\n  struct Loan {\n    uint256 totalAmount;\n    uint256 installmentAmount;\n    uint16 installmentsPaid;\n    uint16 totalInstallments;\n    uint256 nextDueDate;\n    bool isActive;\n    uint256 lastPaymentDate; // Track the last payment date for default checks\n    uint256 defaultCount; // Track the number of missed payments\n  }\n\n  mapping(address => Person) public members;\n  mapping(address => Loan) public loans;\n\n  event Deposited(address indexed member, uint256 amount);\n  event LoanGranted(address indexed borrower, uint256 amount, uint256 reputation, bool isInstallmentPlan);\n  event InstallmentPaid(address indexed borrower, uint256 amount, uint16 remainingInstallments);\n  event LoanRepaidInFull(address indexed borrower, uint256 amount);\n  event PenaltyApplied(address indexed borrower, uint256 penaltyAmount);\n\n  constructor() {\n    owner = payable(msg.sender);\n  }\n\n  modifier onlyMember() {\n    require(members[msg.sender].isMember, \"Only members can perform this action.\");\n    _;\n  }\n\n  modifier canDeposit() {\n    require(currMemberCount == totalMembers, \"All members must join first.\");\n    _;\n  }\n\n  function joinFund() public {\n    require(currMemberCount < totalMembers, \"Maximum members reached.\");\n    require(!members[msg.sender].isMember, \"Already a member.\");\n\n    members[msg.sender] = Person({\n      isMember: true,\n      loanGranted: 0,\n      lastDepositedTime: block.timestamp,\n      totalDeposits: 0,\n      reputationScore: 1,\n      joinTime: block.timestamp\n    });\n    currMemberCount++;\n  }\n\n  function deposit() public payable onlyMember canDeposit {\n    require(msg.value == individualDepositAmount, \"Incorrect deposit amount.\");\n    members[msg.sender].totalDeposits += msg.value;\n    emit Deposited(msg.sender, msg.value);\n  }\n\n  function requestLoan(uint256 amount, uint16 totalInstallments) public onlyMember {\n    require(amount > 0, \"Loan amount must be greater than zero.\");\n    require(amount <= address(this).balance, \"Insufficient funds in contract.\");\n\n    bool isInstallmentPlan = (amount > address(this).balance);\n\n    if (isInstallmentPlan) {\n      // Calculate installment amount if installments are required\n      uint256 installmentAmount = amount / totalInstallments;\n\n      loans[msg.sender] = Loan({\n        totalAmount: amount,\n        installmentAmount: installmentAmount,\n        installmentsPaid: 0,\n        totalInstallments: totalInstallments,\n        nextDueDate: block.timestamp + installmentInterval,\n        isActive: true,\n        lastPaymentDate: block.timestamp, // Initialize last payment date\n        defaultCount: 0 // Initialize default count\n      });\n    } else {\n      loans[msg.sender] = Loan({\n        totalAmount: amount,\n        installmentAmount: amount, // Full repayment in one go\n        installmentsPaid: 0,\n        totalInstallments: 1,\n        nextDueDate: block.timestamp + installmentInterval,\n        isActive: true,\n        lastPaymentDate: block.timestamp, // Initialize last payment date\n        defaultCount: 0 // Initialize default count\n      });\n    }\n\n    members[msg.sender].loanGranted += amount;\n    payable(msg.sender).transfer(amount);\n\n    emit LoanGranted(msg.sender, amount, members[msg.sender].reputationScore, isInstallmentPlan);\n  }\n\n  function payInstallment() public payable onlyMember {\n    Loan storage loan = loans[msg.sender];\n    require(loan.isActive, \"No active loan found.\");\n    require(block.timestamp <= loan.nextDueDate, \"Installment overdue.\");\n    require(msg.value == loan.installmentAmount, \"Incorrect installment amount.\");\n\n    // Update the last payment date and reset default count on payment\n    loan.lastPaymentDate = block.timestamp;\n    loan.defaultCount = 0; // Reset default count on successful payment\n\n    loan.installmentsPaid += 1;\n    loan.nextDueDate += installmentInterval;\n\n    if (loan.installmentsPaid == loan.totalInstallments) {\n      loan.isActive = false;\n      members[msg.sender].loanGranted = 0; // Reset loan amount after full repayment\n\n      emit LoanRepaidInFull(msg.sender, loan.totalAmount);\n    } else {\n      emit InstallmentPaid(msg.sender, msg.value, loan.totalInstallments - loan.installmentsPaid);\n    }\n  }\n\n  function checkMissedInstallments() public onlyMember {\n    Loan storage loan = loans[msg.sender];\n\n    // Only check if there is an active loan\n    if (loan.isActive) {\n      if (block.timestamp > loan.nextDueDate) {\n        loan.defaultCount += 1; // Increase default count\n        uint256 missedPayments = loan.defaultCount;\n\n        // Apply penalty if missed payments exceed the threshold\n        if (missedPayments > 1) { // Assuming 1 missed payment means 30 days\n          uint256 penaltyAmount = (loan.totalAmount * defaultPenaltyPercentage) / 100;\n          loan.totalAmount += penaltyAmount; // Increase total amount by penalty\n          members[msg.sender].reputationScore = members[msg.sender].reputationScore > 1\n            ? members[msg.sender].reputationScore - 1\n            : 0;\n\n          emit PenaltyApplied(msg.sender, penaltyAmount);\n        }\n\n        // Move due date to the next interval\n        loan.nextDueDate += installmentInterval;\n      }\n    }\n  }\n\n  function getLoanDetails(address borrower) public view returns (Loan memory) {\n    return loans[borrower];\n  }\n\n  function withdrawSurplus() public onlyMember {\n    require(loans[msg.sender].installmentsPaid == loans[msg.sender].totalInstallments, \"Loan not fully repaid\");\n    require(address(this).balance >= surplus, \"Insufficient balance for surplus withdrawal\");\n\n    payable(msg.sender).transfer(surplus);\n  }\n}",
  "sourcePath": "/home/illindalaas/trustchain/backend/contracts/PeerToPeerLending.sol",
  "compiler": {
    "name": "solc",
    "version": "0.8.28+commit.7893614a.Emscripten.clang"
  },
  "schemaVersion": "3.4.16",
  "updatedAt": "2024-11-06T11:10:54.331Z",
  "networkType": "ethereum",
  "devdoc": {
    "kind": "dev",
    "methods": {},
    "version": 1
  },
  "userdoc": {
    "kind": "user",
    "methods": {},
    "version": 1
  }
}