{
  "contractName": "TrustChain",
  "abi": [
    {
      "inputs": [],
      "stateMutability": "nonpayable",
      "type": "constructor"
    },
    {
      "anonymous": false,
      "inputs": [
        {
          "indexed": true,
          "internalType": "address",
          "name": "member",
          "type": "address"
        },
        {
          "indexed": false,
          "internalType": "uint256",
          "name": "amount",
          "type": "uint256"
        }
      ],
      "name": "Deposited",
      "type": "event"
    },
    {
      "anonymous": false,
      "inputs": [
        {
          "indexed": true,
          "internalType": "address",
          "name": "borrower",
          "type": "address"
        },
        {
          "indexed": false,
          "internalType": "uint256",
          "name": "amount",
          "type": "uint256"
        },
        {
          "indexed": false,
          "internalType": "uint16",
          "name": "remainingInstallments",
          "type": "uint16"
        }
      ],
      "name": "InstallmentPaid",
      "type": "event"
    },
    {
      "anonymous": false,
      "inputs": [
        {
          "indexed": true,
          "internalType": "address",
          "name": "borrower",
          "type": "address"
        },
        {
          "indexed": false,
          "internalType": "uint256",
          "name": "amount",
          "type": "uint256"
        },
        {
          "indexed": false,
          "internalType": "uint256",
          "name": "reputation",
          "type": "uint256"
        }
      ],
      "name": "LoanGranted",
      "type": "event"
    },
    {
      "anonymous": false,
      "inputs": [
        {
          "indexed": true,
          "internalType": "address",
          "name": "borrower",
          "type": "address"
        },
        {
          "indexed": false,
          "internalType": "uint256",
          "name": "amount",
          "type": "uint256"
        }
      ],
      "name": "LoanRepaidInFull",
      "type": "event"
    },
    {
      "anonymous": false,
      "inputs": [
        {
          "indexed": true,
          "internalType": "address",
          "name": "borrower",
          "type": "address"
        },
        {
          "indexed": false,
          "internalType": "uint256",
          "name": "penaltyAmount",
          "type": "uint256"
        }
      ],
      "name": "PenaltyApplied",
      "type": "event"
    },
    {
      "anonymous": false,
      "inputs": [
        {
          "indexed": true,
          "internalType": "address",
          "name": "borrower",
          "type": "address"
        },
        {
          "indexed": false,
          "internalType": "uint256",
          "name": "newReputation",
          "type": "uint256"
        }
      ],
      "name": "ReputationIncreased",
      "type": "event"
    },
    {
      "inputs": [],
      "name": "currMemberCount",
      "outputs": [
        {
          "internalType": "uint8",
          "name": "",
          "type": "uint8"
        }
      ],
      "stateMutability": "view",
      "type": "function"
    },
    {
      "inputs": [],
      "name": "defaultPenaltyPercentage",
      "outputs": [
        {
          "internalType": "uint256",
          "name": "",
          "type": "uint256"
        }
      ],
      "stateMutability": "view",
      "type": "function"
    },
    {
      "inputs": [],
      "name": "individualDepositAmount",
      "outputs": [
        {
          "internalType": "uint256",
          "name": "",
          "type": "uint256"
        }
      ],
      "stateMutability": "view",
      "type": "function"
    },
    {
      "inputs": [],
      "name": "installmentInterval",
      "outputs": [
        {
          "internalType": "uint256",
          "name": "",
          "type": "uint256"
        }
      ],
      "stateMutability": "view",
      "type": "function"
    },
    {
      "inputs": [
        {
          "internalType": "address",
          "name": "",
          "type": "address"
        }
      ],
      "name": "loans",
      "outputs": [
        {
          "internalType": "uint256",
          "name": "totalAmount",
          "type": "uint256"
        },
        {
          "internalType": "uint256",
          "name": "installmentAmount",
          "type": "uint256"
        },
        {
          "internalType": "uint16",
          "name": "installmentsPaid",
          "type": "uint16"
        },
        {
          "internalType": "uint16",
          "name": "totalInstallments",
          "type": "uint16"
        },
        {
          "internalType": "uint256",
          "name": "nextDueDate",
          "type": "uint256"
        },
        {
          "internalType": "bool",
          "name": "isActive",
          "type": "bool"
        },
        {
          "internalType": "uint256",
          "name": "lastPaymentDate",
          "type": "uint256"
        },
        {
          "internalType": "uint256",
          "name": "defaultCount",
          "type": "uint256"
        }
      ],
      "stateMutability": "view",
      "type": "function"
    },
    {
      "inputs": [
        {
          "internalType": "address",
          "name": "",
          "type": "address"
        }
      ],
      "name": "members",
      "outputs": [
        {
          "internalType": "bool",
          "name": "isMember",
          "type": "bool"
        },
        {
          "internalType": "uint256",
          "name": "loanGranted",
          "type": "uint256"
        },
        {
          "internalType": "uint256",
          "name": "lastDepositedTime",
          "type": "uint256"
        },
        {
          "internalType": "uint256",
          "name": "totalDeposits",
          "type": "uint256"
        },
        {
          "internalType": "uint256",
          "name": "reputationScore",
          "type": "uint256"
        },
        {
          "internalType": "uint256",
          "name": "joinTime",
          "type": "uint256"
        }
      ],
      "stateMutability": "view",
      "type": "function"
    },
    {
      "inputs": [],
      "name": "owner",
      "outputs": [
        {
          "internalType": "address payable",
          "name": "",
          "type": "address"
        }
      ],
      "stateMutability": "view",
      "type": "function"
    },
    {
      "inputs": [],
      "name": "surplus",
      "outputs": [
        {
          "internalType": "uint256",
          "name": "",
          "type": "uint256"
        }
      ],
      "stateMutability": "view",
      "type": "function"
    },
    {
      "inputs": [],
      "name": "totalMembers",
      "outputs": [
        {
          "internalType": "uint8",
          "name": "",
          "type": "uint8"
        }
      ],
      "stateMutability": "view",
      "type": "function"
    },
    {
      "inputs": [],
      "name": "joinFund",
      "outputs": [],
      "stateMutability": "nonpayable",
      "type": "function"
    },
    {
      "inputs": [],
      "name": "deposit",
      "outputs": [],
      "stateMutability": "payable",
      "type": "function"
    },
    {
      "inputs": [
        {
          "internalType": "uint256",
          "name": "amount",
          "type": "uint256"
        }
      ],
      "name": "requestLoan",
      "outputs": [],
      "stateMutability": "nonpayable",
      "type": "function"
    },
    {
      "inputs": [],
      "name": "payInstallment",
      "outputs": [],
      "stateMutability": "payable",
      "type": "function"
    },
    {
      "inputs": [],
      "name": "checkMissedInstallments",
      "outputs": [],
      "stateMutability": "nonpayable",
      "type": "function"
    },
    {
      "inputs": [
        {
          "internalType": "address",
          "name": "borrower",
          "type": "address"
        }
      ],
      "name": "getLoanDetails",
      "outputs": [
        {
          "components": [
            {
              "internalType": "uint256",
              "name": "totalAmount",
              "type": "uint256"
            },
            {
              "internalType": "uint256",
              "name": "installmentAmount",
              "type": "uint256"
            },
            {
              "internalType": "uint16",
              "name": "installmentsPaid",
              "type": "uint16"
            },
            {
              "internalType": "uint16",
              "name": "totalInstallments",
              "type": "uint16"
            },
            {
              "internalType": "uint256",
              "name": "nextDueDate",
              "type": "uint256"
            },
            {
              "internalType": "bool",
              "name": "isActive",
              "type": "bool"
            },
            {
              "internalType": "uint256",
              "name": "lastPaymentDate",
              "type": "uint256"
            },
            {
              "internalType": "uint256",
              "name": "defaultCount",
              "type": "uint256"
            }
          ],
          "internalType": "struct TrustChain.Loan",
          "name": "",
          "type": "tuple"
        }
      ],
      "stateMutability": "view",
      "type": "function"
    },
    {
      "inputs": [],
      "name": "withdrawSurplus",
      "outputs": [],
      "stateMutability": "nonpayable",
      "type": "function"
    },
    {
      "inputs": [],
      "name": "getReputationScore",
      "outputs": [
        {
          "internalType": "uint256",
          "name": "",
          "type": "uint256"
        }
      ],
      "stateMutability": "view",
      "type": "function"
    }
  ],
  "bytecode": "0x608060405260025f60146101000a81548160ff021916908360ff1602179055505f5f60156101000a81548160ff021916908360ff160217905550662386f26fc10000600155660aa87bee53800060025562278d00600355600a6004553480156065575f5ffd5b50335f5f6101000a81548173ffffffffffffffffffffffffffffffffffffffff021916908373ffffffffffffffffffffffffffffffffffffffff160217905550612262806100b25f395ff3fe6080604052600436106100fd575f3560e01c806387eb3f5311610094578063d0e30db011610063578063d0e30db0146102eb578063d67fe198146102f5578063de851b0a1461031f578063e8a7da8e14610349578063e9e1965d14610385576100fd565b806387eb3f531461026d5780638a24c175146102835780638d5d3429146102995780638da5cb5b146102c1576100fd565b806350f39e12116100d057806350f39e12146101ac5780636c7bbd10146101d657806373b4086b1461020057806376e9255914610243576100fd565b806308ae4b0c146101015780631388856514610142578063423646ac1461016c5780634be957da14610196575b5f5ffd5b34801561010c575f5ffd5b5061012760048036038101906101229190611715565b61038f565b60405161013996959493929190611772565b60405180910390f35b34801561014d575f5ffd5b506101566103d3565b60405161016391906117d1565b60405180910390f35b348015610177575f5ffd5b506101806103d9565b60405161018d91906117d1565b60405180910390f35b3480156101a1575f5ffd5b506101aa610420565b005b3480156101b7575f5ffd5b506101c0610609565b6040516101cd91906117d1565b60405180910390f35b3480156101e1575f5ffd5b506101ea61060f565b6040516101f791906117d1565b60405180910390f35b34801561020b575f5ffd5b5061022660048036038101906102219190611715565b610615565b60405161023a989796959493929190611806565b60405180910390f35b34801561024e575f5ffd5b50610257610680565b604051610264919061189d565b60405180910390f35b348015610278575f5ffd5b50610281610692565b005b34801561028e575f5ffd5b50610297610936565b005b3480156102a4575f5ffd5b506102bf60048036038101906102ba91906118e0565b610b33565b005b3480156102cc575f5ffd5b506102d5610f19565b6040516102e2919061192b565b60405180910390f35b6102f3610f3d565b005b348015610300575f5ffd5b50610309611116565b604051610316919061189d565b60405180910390f35b34801561032a575f5ffd5b50610333611128565b60405161034091906117d1565b60405180910390f35b348015610354575f5ffd5b5061036f600480360381019061036a9190611715565b61112e565b60405161037c9190611a11565b60405180910390f35b61038d611210565b005b6005602052805f5260405f205f91509050805f015f9054906101000a900460ff16908060010154908060020154908060030154908060040154908060050154905086565b60025481565b5f60055f3373ffffffffffffffffffffffffffffffffffffffff1673ffffffffffffffffffffffffffffffffffffffff1681526020019081526020015f2060040154905090565b5f60149054906101000a900460ff1660ff165f60159054906101000a900460ff1660ff1610610484576040517f08c379a000000000000000000000000000000000000000000000000000000000815260040161047b90611a85565b60405180910390fd5b60055f3373ffffffffffffffffffffffffffffffffffffffff1673ffffffffffffffffffffffffffffffffffffffff1681526020019081526020015f205f015f9054906101000a900460ff1615610510576040517f08c379a000000000000000000000000000000000000000000000000000000000815260040161050790611aed565b60405180910390fd5b6040518060c001604052806001151581526020015f81526020014281526020015f8152602001600181526020014281525060055f3373ffffffffffffffffffffffffffffffffffffffff1673ffffffffffffffffffffffffffffffffffffffff1681526020019081526020015f205f820151815f015f6101000a81548160ff0219169083151502179055506020820151816001015560408201518160020155606082015181600301556080820151816004015560a082015181600501559050505f601581819054906101000a900460ff16809291906105ee90611b38565b91906101000a81548160ff021916908360ff16021790555050565b60045481565b60015481565b6006602052805f5260405f205f91509050805f015490806001015490806002015f9054906101000a900461ffff16908060020160029054906101000a900461ffff1690806003015490806004015f9054906101000a900460ff16908060050154908060060154905088565b5f60149054906101000a900460ff1681565b60055f3373ffffffffffffffffffffffffffffffffffffffff1673ffffffffffffffffffffffffffffffffffffffff1681526020019081526020015f205f015f9054906101000a900460ff1661071d576040517f08c379a000000000000000000000000000000000000000000000000000000000815260040161071490611bd0565b60405180910390fd5b5f60065f3373ffffffffffffffffffffffffffffffffffffffff1673ffffffffffffffffffffffffffffffffffffffff1681526020019081526020015f209050806004015f9054906101000a900460ff1615610933578060030154421115610932576001816006015f8282546107939190611bee565b925050819055505f816006015490506001811115610914575f6064600454845f01546107bf9190611c21565b6107c99190611c8f565b905080835f015f8282546107dd9190611bee565b92505081905550600160055f3373ffffffffffffffffffffffffffffffffffffffff1673ffffffffffffffffffffffffffffffffffffffff1681526020019081526020015f206004015411610832575f610880565b600160055f3373ffffffffffffffffffffffffffffffffffffffff1673ffffffffffffffffffffffffffffffffffffffff1681526020019081526020015f206004015461087f9190611cbf565b5b60055f3373ffffffffffffffffffffffffffffffffffffffff1673ffffffffffffffffffffffffffffffffffffffff1681526020019081526020015f20600401819055503373ffffffffffffffffffffffffffffffffffffffff167f4b28c7dc138644f27518388387393ecbd08ef8d180a4a6799c954be166a37ab38260405161090a91906117d1565b60405180910390a2505b600354826003015f8282546109299190611bee565b92505081905550505b5b50565b60055f3373ffffffffffffffffffffffffffffffffffffffff1673ffffffffffffffffffffffffffffffffffffffff1681526020019081526020015f205f015f9054906101000a900460ff166109c1576040517f08c379a00000000000000000000000000000000000000000000000000000000081526004016109b890611bd0565b60405180910390fd5b60065f3373ffffffffffffffffffffffffffffffffffffffff1673ffffffffffffffffffffffffffffffffffffffff1681526020019081526020015f2060020160029054906101000a900461ffff1661ffff1660065f3373ffffffffffffffffffffffffffffffffffffffff1673ffffffffffffffffffffffffffffffffffffffff1681526020019081526020015f206002015f9054906101000a900461ffff1661ffff1614610aa6576040517f08c379a0000000000000000000000000000000000000000000000000000000008152600401610a9d90611d3c565b60405180910390fd5b600254471015610aeb576040517f08c379a0000000000000000000000000000000000000000000000000000000008152600401610ae290611dca565b60405180910390fd5b3373ffffffffffffffffffffffffffffffffffffffff166108fc60025490811502906040515f60405180830381858888f19350505050158015610b30573d5f5f3e3d5ffd5b50565b60055f3373ffffffffffffffffffffffffffffffffffffffff1673ffffffffffffffffffffffffffffffffffffffff1681526020019081526020015f205f015f9054906101000a900460ff16610bbe576040517f08c379a0000000000000000000000000000000000000000000000000000000008152600401610bb590611bd0565b60405180910390fd5b5f8111610c00576040517f08c379a0000000000000000000000000000000000000000000000000000000008152600401610bf790611e58565b60405180910390fd5b47811115610c43576040517f08c379a0000000000000000000000000000000000000000000000000000000008152600401610c3a90611ec0565b60405180910390fd5b5f60055f3373ffffffffffffffffffffffffffffffffffffffff1673ffffffffffffffffffffffffffffffffffffffff1681526020019081526020015f206004015411610cc5576040517f08c379a0000000000000000000000000000000000000000000000000000000008152600401610cbc90611f4e565b60405180910390fd5b6040518061010001604052808281526020018281526020015f61ffff168152602001600161ffff16815260200160035442610d009190611bee565b81526020016001151581526020014281526020015f81525060065f3373ffffffffffffffffffffffffffffffffffffffff1673ffffffffffffffffffffffffffffffffffffffff1681526020019081526020015f205f820151815f0155602082015181600101556040820151816002015f6101000a81548161ffff021916908361ffff16021790555060608201518160020160026101000a81548161ffff021916908361ffff1602179055506080820151816003015560a0820151816004015f6101000a81548160ff02191690831515021790555060c0820151816005015560e082015181600601559050508060055f3373ffffffffffffffffffffffffffffffffffffffff1673ffffffffffffffffffffffffffffffffffffffff1681526020019081526020015f206001015f828254610e3b9190611bee565b925050819055503373ffffffffffffffffffffffffffffffffffffffff166108fc8290811502906040515f60405180830381858888f19350505050158015610e85573d5f5f3e3d5ffd5b503373ffffffffffffffffffffffffffffffffffffffff167f1f4fa8bbaa124ef8d04466f13d5a2572fb712424cee0bc9cf430aec52439acd78260055f3373ffffffffffffffffffffffffffffffffffffffff1673ffffffffffffffffffffffffffffffffffffffff1681526020019081526020015f2060040154604051610f0e929190611f6c565b60405180910390a250565b5f5f9054906101000a900473ffffffffffffffffffffffffffffffffffffffff1681565b60055f3373ffffffffffffffffffffffffffffffffffffffff1673ffffffffffffffffffffffffffffffffffffffff1681526020019081526020015f205f015f9054906101000a900460ff16610fc8576040517f08c379a0000000000000000000000000000000000000000000000000000000008152600401610fbf90611bd0565b60405180910390fd5b5f60149054906101000a900460ff1660ff165f60159054906101000a900460ff1660ff161461102c576040517f08c379a000000000000000000000000000000000000000000000000000000000815260040161102390611fdd565b60405180910390fd5b6001543414611070576040517f08c379a000000000000000000000000000000000000000000000000000000000815260040161106790612045565b60405180910390fd5b3460055f3373ffffffffffffffffffffffffffffffffffffffff1673ffffffffffffffffffffffffffffffffffffffff1681526020019081526020015f206003015f8282546110bf9190611bee565b925050819055503373ffffffffffffffffffffffffffffffffffffffff167f2da466a7b24304f47e87fa2e1e5a81b9831ce54fec19055ce277ca2f39ba42c43460405161110c91906117d1565b60405180910390a2565b5f60159054906101000a900460ff1681565b60035481565b611136611670565b60065f8373ffffffffffffffffffffffffffffffffffffffff1673ffffffffffffffffffffffffffffffffffffffff1681526020019081526020015f20604051806101000160405290815f820154815260200160018201548152602001600282015f9054906101000a900461ffff1661ffff1661ffff1681526020016002820160029054906101000a900461ffff1661ffff1661ffff16815260200160038201548152602001600482015f9054906101000a900460ff16151515158152602001600582015481526020016006820154815250509050919050565b60055f3373ffffffffffffffffffffffffffffffffffffffff1673ffffffffffffffffffffffffffffffffffffffff1681526020019081526020015f205f015f9054906101000a900460ff1661129b576040517f08c379a000000000000000000000000000000000000000000000000000000000815260040161129290611bd0565b60405180910390fd5b5f60065f3373ffffffffffffffffffffffffffffffffffffffff1673ffffffffffffffffffffffffffffffffffffffff1681526020019081526020015f209050806004015f9054906101000a900460ff1661132b576040517f08c379a0000000000000000000000000000000000000000000000000000000008152600401611322906120ad565b60405180910390fd5b8060030154421115611372576040517f08c379a000000000000000000000000000000000000000000000000000000000815260040161136990612115565b60405180910390fd5b806001015434146113b8576040517f08c379a00000000000000000000000000000000000000000000000000000000081526004016113af9061217d565b60405180910390fd5b4281600501819055505f81600601819055506001816002015f8282829054906101000a900461ffff166113eb919061219b565b92506101000a81548161ffff021916908361ffff160217905550600354816003015f82825461141a9190611bee565b925050819055508060020160029054906101000a900461ffff1661ffff16816002015f9054906101000a900461ffff1661ffff16036115ee575f816004015f6101000a81548160ff0219169083151502179055505f60055f3373ffffffffffffffffffffffffffffffffffffffff1673ffffffffffffffffffffffffffffffffffffffff1681526020019081526020015f2060010181905550600160055f3373ffffffffffffffffffffffffffffffffffffffff1673ffffffffffffffffffffffffffffffffffffffff1681526020019081526020015f206004015f8282546115039190611bee565b925050819055503373ffffffffffffffffffffffffffffffffffffffff167f3f6d3e52b59035b39d4a2c00cc687d9e90918df867860a0ef52aa506b33ee780825f015460405161155391906117d1565b60405180910390a23373ffffffffffffffffffffffffffffffffffffffff167ffac498e7ee7d43e382528bf22afd838a7c6abfa5f54e7c564f7e5a54a18ca34c60055f3373ffffffffffffffffffffffffffffffffffffffff1673ffffffffffffffffffffffffffffffffffffffff1681526020019081526020015f20600401546040516115e191906117d1565b60405180910390a261166d565b3373ffffffffffffffffffffffffffffffffffffffff167f1fab14b94316663c88d967bdfed07c6f6b76086ed879b1cbeb6632d14a3a787134836002015f9054906101000a900461ffff168460020160029054906101000a900461ffff1661165691906121d0565b604051611664929190612205565b60405180910390a25b50565b6040518061010001604052805f81526020015f81526020015f61ffff1681526020015f61ffff1681526020015f81526020015f151581526020015f81526020015f81525090565b5f5ffd5b5f73ffffffffffffffffffffffffffffffffffffffff82169050919050565b5f6116e4826116bb565b9050919050565b6116f4816116da565b81146116fe575f5ffd5b50565b5f8135905061170f816116eb565b92915050565b5f6020828403121561172a576117296116b7565b5b5f61173784828501611701565b91505092915050565b5f8115159050919050565b61175481611740565b82525050565b5f819050919050565b61176c8161175a565b82525050565b5f60c0820190506117855f83018961174b565b6117926020830188611763565b61179f6040830187611763565b6117ac6060830186611763565b6117b96080830185611763565b6117c660a0830184611763565b979650505050505050565b5f6020820190506117e45f830184611763565b92915050565b5f61ffff82169050919050565b611800816117ea565b82525050565b5f6101008201905061181a5f83018b611763565b611827602083018a611763565b61183460408301896117f7565b61184160608301886117f7565b61184e6080830187611763565b61185b60a083018661174b565b61186860c0830185611763565b61187560e0830184611763565b9998505050505050505050565b5f60ff82169050919050565b61189781611882565b82525050565b5f6020820190506118b05f83018461188e565b92915050565b6118bf8161175a565b81146118c9575f5ffd5b50565b5f813590506118da816118b6565b92915050565b5f602082840312156118f5576118f46116b7565b5b5f611902848285016118cc565b91505092915050565b5f611915826116bb565b9050919050565b6119258161190b565b82525050565b5f60208201905061193e5f83018461191c565b92915050565b61194d8161175a565b82525050565b61195c816117ea565b82525050565b61196b81611740565b82525050565b61010082015f8201516119865f850182611944565b5060208201516119996020850182611944565b5060408201516119ac6040850182611953565b5060608201516119bf6060850182611953565b5060808201516119d26080850182611944565b5060a08201516119e560a0850182611962565b5060c08201516119f860c0850182611944565b5060e0820151611a0b60e0850182611944565b50505050565b5f61010082019050611a255f830184611971565b92915050565b5f82825260208201905092915050565b7f4d6178696d756d206d656d6265727320726561636865642e00000000000000005f82015250565b5f611a6f601883611a2b565b9150611a7a82611a3b565b602082019050919050565b5f6020820190508181035f830152611a9c81611a63565b9050919050565b7f416c72656164792061206d656d6265722e0000000000000000000000000000005f82015250565b5f611ad7601183611a2b565b9150611ae282611aa3565b602082019050919050565b5f6020820190508181035f830152611b0481611acb565b9050919050565b7f4e487b71000000000000000000000000000000000000000000000000000000005f52601160045260245ffd5b5f611b4282611882565b915060ff8203611b5557611b54611b0b565b5b600182019050919050565b7f4f6e6c79206d656d626572732063616e20706572666f726d20746869732061635f8201527f74696f6e2e000000000000000000000000000000000000000000000000000000602082015250565b5f611bba602583611a2b565b9150611bc582611b60565b604082019050919050565b5f6020820190508181035f830152611be781611bae565b9050919050565b5f611bf88261175a565b9150611c038361175a565b9250828201905080821115611c1b57611c1a611b0b565b5b92915050565b5f611c2b8261175a565b9150611c368361175a565b9250828202611c448161175a565b91508282048414831517611c5b57611c5a611b0b565b5b5092915050565b7f4e487b71000000000000000000000000000000000000000000000000000000005f52601260045260245ffd5b5f611c998261175a565b9150611ca48361175a565b925082611cb457611cb3611c62565b5b828204905092915050565b5f611cc98261175a565b9150611cd48361175a565b9250828203905081811115611cec57611ceb611b0b565b5b92915050565b7f4c6f616e206e6f742066756c6c792072657061696400000000000000000000005f82015250565b5f611d26601583611a2b565b9150611d3182611cf2565b602082019050919050565b5f6020820190508181035f830152611d5381611d1a565b9050919050565b7f496e73756666696369656e742062616c616e636520666f7220737572706c75735f8201527f207769746864726177616c000000000000000000000000000000000000000000602082015250565b5f611db4602b83611a2b565b9150611dbf82611d5a565b604082019050919050565b5f6020820190508181035f830152611de181611da8565b9050919050565b7f4c6f616e20616d6f756e74206d7573742062652067726561746572207468616e5f8201527f207a65726f2e0000000000000000000000000000000000000000000000000000602082015250565b5f611e42602683611a2b565b9150611e4d82611de8565b604082019050919050565b5f6020820190508181035f830152611e6f81611e36565b9050919050565b7f496e73756666696369656e742066756e647320696e20636f6e74726163742e005f82015250565b5f611eaa601f83611a2b565b9150611eb582611e76565b602082019050919050565b5f6020820190508181035f830152611ed781611e9e565b9050919050565b7f52657075746174696f6e20746f6f206c6f7720746f20726571756573742061205f8201527f6c6f616e2e000000000000000000000000000000000000000000000000000000602082015250565b5f611f38602583611a2b565b9150611f4382611ede565b604082019050919050565b5f6020820190508181035f830152611f6581611f2c565b9050919050565b5f604082019050611f7f5f830185611763565b611f8c6020830184611763565b9392505050565b7f416c6c206d656d62657273206d757374206a6f696e2066697273742e000000005f82015250565b5f611fc7601c83611a2b565b9150611fd282611f93565b602082019050919050565b5f6020820190508181035f830152611ff481611fbb565b9050919050565b7f496e636f7272656374206465706f73697420616d6f756e742e000000000000005f82015250565b5f61202f601983611a2b565b915061203a82611ffb565b602082019050919050565b5f6020820190508181035f83015261205c81612023565b9050919050565b7f4e6f20616374697665206c6f616e20666f756e642e00000000000000000000005f82015250565b5f612097601583611a2b565b91506120a282612063565b602082019050919050565b5f6020820190508181035f8301526120c48161208b565b9050919050565b7f496e7374616c6c6d656e74206f7665726475652e0000000000000000000000005f82015250565b5f6120ff601483611a2b565b915061210a826120cb565b602082019050919050565b5f6020820190508181035f83015261212c816120f3565b9050919050565b7f496e636f727265637420696e7374616c6c6d656e7420616d6f756e742e0000005f82015250565b5f612167601d83611a2b565b915061217282612133565b602082019050919050565b5f6020820190508181035f8301526121948161215b565b9050919050565b5f6121a5826117ea565b91506121b0836117ea565b9250828201905061ffff8111156121ca576121c9611b0b565b5b92915050565b5f6121da826117ea565b91506121e5836117ea565b9250828203905061ffff8111156121ff576121fe611b0b565b5b92915050565b5f6040820190506122185f830185611763565b61222560208301846117f7565b939250505056fea2646970667358221220529a77238dba20eb4c4dda694a618d7830b999dda8a75c091097bd8cafa37d7964736f6c634300081c0033",
  "immutableReferences": {},
  "source": "// SPDX-License-Identifier: UNLICENSED\npragma solidity ^0.8.0;\n\ncontract TrustChain {\n    address payable public owner;\n    uint8 public totalMembers = 2;\n    uint8 public currMemberCount = 0;\n    uint256 public individualDepositAmount = 0.01 ether;\n    uint256 public surplus = 0.003 ether;\n    uint256 public installmentInterval = 30 days;\n    uint256 public defaultPenaltyPercentage = 10; // Penalty percentage for defaults\n\n    struct Person {\n        bool isMember;\n        uint256 loanGranted;\n        uint256 lastDepositedTime;\n        uint256 totalDeposits;\n        uint256 reputationScore;\n        uint256 joinTime;\n    }\n\n    struct Loan {\n        uint256 totalAmount;\n        uint256 installmentAmount;\n        uint16 installmentsPaid;\n        uint16 totalInstallments;\n        uint256 nextDueDate;\n        bool isActive;\n        uint256 lastPaymentDate; // Track the last payment date for default checks\n        uint256 defaultCount; // Track the number of missed payments\n    }\n\n    mapping(address => Person) public members;\n    mapping(address => Loan) public loans;\n\n    event Deposited(address indexed member, uint256 amount);\n    event LoanGranted(address indexed borrower, uint256 amount, uint256 reputation);\n    event InstallmentPaid(address indexed borrower, uint256 amount, uint16 remainingInstallments);\n    event LoanRepaidInFull(address indexed borrower, uint256 amount);\n    event PenaltyApplied(address indexed borrower, uint256 penaltyAmount);\n    event ReputationIncreased(address indexed borrower, uint256 newReputation);\n\n    constructor() {\n        owner = payable(msg.sender);\n    }\n\n    modifier onlyMember() {\n        require(members[msg.sender].isMember, \"Only members can perform this action.\");\n        _;\n    }\n\n    modifier canDeposit() {\n        require(currMemberCount == totalMembers, \"All members must join first.\");\n        _;\n    }\n\n    function joinFund() public {\n        require(currMemberCount < totalMembers, \"Maximum members reached.\");\n        require(!members[msg.sender].isMember, \"Already a member.\");\n        \n        members[msg.sender] = Person({\n            isMember: true,\n            loanGranted: 0,\n            lastDepositedTime: block.timestamp,\n            totalDeposits: 0,\n            reputationScore: 1,\n            joinTime: block.timestamp\n        });\n        currMemberCount++;\n    }\n\n    function deposit() public payable onlyMember canDeposit {\n        require(msg.value == individualDepositAmount, \"Incorrect deposit amount.\");\n        members[msg.sender].totalDeposits += msg.value;\n        emit Deposited(msg.sender, msg.value);\n    }\n\n    function requestLoan(uint256 amount) public onlyMember {\n        require(amount > 0, \"Loan amount must be greater than zero.\");\n        require(amount <= address(this).balance, \"Insufficient funds in contract.\");\n        require(members[msg.sender].reputationScore > 0, \"Reputation too low to request a loan.\");\n\n        // Grant loan in full if sufficient funds are available in the contract\n        loans[msg.sender] = Loan({\n            totalAmount: amount,\n            installmentAmount: amount, \n            installmentsPaid: 0,\n            totalInstallments: 1, \n            nextDueDate: block.timestamp + installmentInterval,\n            isActive: true,\n            lastPaymentDate: block.timestamp,\n            defaultCount: 0\n        });\n\n        members[msg.sender].loanGranted += amount;\n        payable(msg.sender).transfer(amount);\n\n        emit LoanGranted(msg.sender, amount, members[msg.sender].reputationScore);\n    }\n\n    function payInstallment() public payable onlyMember {\n        Loan storage loan = loans[msg.sender];\n        require(loan.isActive, \"No active loan found.\");\n        require(block.timestamp <= loan.nextDueDate, \"Installment overdue.\");\n        require(msg.value == loan.installmentAmount, \"Incorrect installment amount.\");\n\n        loan.lastPaymentDate = block.timestamp;\n        loan.defaultCount = 0; // Reset default count on successful payment\n        loan.installmentsPaid += 1;\n        loan.nextDueDate += installmentInterval;\n\n        // Increase reputation after proper repayment\n        if (loan.installmentsPaid == loan.totalInstallments) {\n            loan.isActive = false;\n            members[msg.sender].loanGranted = 0; // Reset loan amount after full repayment\n            members[msg.sender].reputationScore += 1; // Increase reputation score after full repayment\n\n            emit LoanRepaidInFull(msg.sender, loan.totalAmount);\n            emit ReputationIncreased(msg.sender, members[msg.sender].reputationScore);\n        } else {\n            emit InstallmentPaid(msg.sender, msg.value, loan.totalInstallments - loan.installmentsPaid);\n        }\n    }\n\n    function checkMissedInstallments() public onlyMember {\n        Loan storage loan = loans[msg.sender];\n\n        if (loan.isActive) {\n            if (block.timestamp > loan.nextDueDate) {\n                loan.defaultCount += 1; // Increase default count\n                uint256 missedPayments = loan.defaultCount;\n\n                if (missedPayments > 1) {\n                    uint256 penaltyAmount = (loan.totalAmount * defaultPenaltyPercentage) / 100;\n                    loan.totalAmount += penaltyAmount; // Increase total amount by penalty\n                    members[msg.sender].reputationScore = members[msg.sender].reputationScore > 1\n                        ? members[msg.sender].reputationScore - 1\n                        : 0;\n\n                    emit PenaltyApplied(msg.sender, penaltyAmount);\n                }\n\n                loan.nextDueDate += installmentInterval; // Move due date to the next interval\n            }\n        }\n    }\n\n    function getLoanDetails(address borrower) public view returns (Loan memory) {\n        return loans[borrower];\n    }\n\n    function withdrawSurplus() public onlyMember {\n        require(loans[msg.sender].installmentsPaid == loans[msg.sender].totalInstallments, \"Loan not fully repaid\");\n        require(address(this).balance >= surplus, \"Insufficient balance for surplus withdrawal\");\n\n        payable(msg.sender).transfer(surplus);\n    }\n\n    // New function to check reputation score\n    function getReputationScore() public view returns (uint256) {\n        return members[msg.sender].reputationScore;\n    }\n}",
  "sourcePath": "/home/illindalaas/blockchainproject/backend/contracts/TrustChain.sol",
  "compiler": {
    "name": "solc",
    "version": "0.8.28+commit.7893614a.Emscripten.clang"
  },
  "schemaVersion": "3.4.16",
  "updatedAt": "2024-11-06T16:14:57.327Z",
  "devdoc": {
    "kind": "dev",
    "methods": {},
    "version": 1
  },
  "userdoc": {
    "kind": "user",
    "methods": {},
    "version": 1
  }
}